{
  "contractName": "FlightSuretyData",
  "abi": [
    {
      "inputs": [],
      "stateMutability": "nonpayable",
      "type": "constructor"
    },
    {
      "anonymous": false,
      "inputs": [
        {
          "indexed": false,
          "internalType": "address",
          "name": "authContract",
          "type": "address"
        }
      ],
      "name": "AuthorizedContract",
      "type": "event"
    },
    {
      "anonymous": false,
      "inputs": [
        {
          "indexed": false,
          "internalType": "address",
          "name": "authContract",
          "type": "address"
        }
      ],
      "name": "DeAuthorizedContract",
      "type": "event"
    },
    {
      "inputs": [],
      "name": "isOperational",
      "outputs": [
        {
          "internalType": "bool",
          "name": "",
          "type": "bool"
        }
      ],
      "stateMutability": "view",
      "type": "function",
      "constant": true
    },
    {
      "inputs": [
        {
          "internalType": "bool",
          "name": "mode",
          "type": "bool"
        }
      ],
      "name": "setOperatingStatus",
      "outputs": [],
      "stateMutability": "nonpayable",
      "type": "function"
    },
    {
      "inputs": [
        {
          "internalType": "address",
          "name": "newContractAddress",
          "type": "address"
        }
      ],
      "name": "authorizeCaller",
      "outputs": [],
      "stateMutability": "nonpayable",
      "type": "function"
    },
    {
      "inputs": [
        {
          "internalType": "address",
          "name": "prevContractAddress",
          "type": "address"
        }
      ],
      "name": "deAuthorizeContract",
      "outputs": [],
      "stateMutability": "nonpayable",
      "type": "function"
    },
    {
      "inputs": [
        {
          "internalType": "address",
          "name": "account",
          "type": "address"
        },
        {
          "internalType": "bool",
          "name": "airlineOpStatus",
          "type": "bool"
        }
      ],
      "name": "_registerAirline",
      "outputs": [],
      "stateMutability": "nonpayable",
      "type": "function"
    },
    {
      "inputs": [
        {
          "internalType": "address",
          "name": "account",
          "type": "address"
        }
      ],
      "name": "getAirlineOperatingStatus",
      "outputs": [
        {
          "internalType": "bool",
          "name": "",
          "type": "bool"
        }
      ],
      "stateMutability": "view",
      "type": "function",
      "constant": true
    },
    {
      "inputs": [
        {
          "internalType": "address",
          "name": "account",
          "type": "address"
        },
        {
          "internalType": "bool",
          "name": "status",
          "type": "bool"
        }
      ],
      "name": "setAirlineOperatingStatus",
      "outputs": [],
      "stateMutability": "nonpayable",
      "type": "function"
    },
    {
      "inputs": [
        {
          "internalType": "address",
          "name": "account",
          "type": "address"
        }
      ],
      "name": "getAirlineRegistrationStatus",
      "outputs": [
        {
          "internalType": "bool",
          "name": "",
          "type": "bool"
        }
      ],
      "stateMutability": "view",
      "type": "function",
      "constant": true
    },
    {
      "inputs": [
        {
          "internalType": "address",
          "name": "airline",
          "type": "address"
        },
        {
          "internalType": "uint256",
          "name": "amount",
          "type": "uint256"
        }
      ],
      "name": "fundAirline",
      "outputs": [],
      "stateMutability": "nonpayable",
      "type": "function"
    },
    {
      "inputs": [
        {
          "internalType": "address",
          "name": "airline",
          "type": "address"
        }
      ],
      "name": "getAirlineFunding",
      "outputs": [
        {
          "internalType": "uint256",
          "name": "",
          "type": "uint256"
        }
      ],
      "stateMutability": "view",
      "type": "function",
      "constant": true
    },
    {
      "inputs": [
        {
          "internalType": "address",
          "name": "airline",
          "type": "address"
        }
      ],
      "name": "isAirline",
      "outputs": [
        {
          "internalType": "bool",
          "name": "",
          "type": "bool"
        }
      ],
      "stateMutability": "view",
      "type": "function",
      "constant": true
    },
    {
      "inputs": [
        {
          "internalType": "address",
          "name": "account",
          "type": "address"
        }
      ],
      "name": "getVoteCounter",
      "outputs": [
        {
          "internalType": "uint256",
          "name": "",
          "type": "uint256"
        }
      ],
      "stateMutability": "view",
      "type": "function",
      "constant": true
    },
    {
      "inputs": [
        {
          "internalType": "address",
          "name": "airline",
          "type": "address"
        },
        {
          "internalType": "uint256",
          "name": "count",
          "type": "uint256"
        }
      ],
      "name": "addVoterCounter",
      "outputs": [],
      "stateMutability": "nonpayable",
      "type": "function"
    },
    {
      "inputs": [
        {
          "internalType": "address",
          "name": "account",
          "type": "address"
        }
      ],
      "name": "resetVoteCounter",
      "outputs": [],
      "stateMutability": "nonpayable",
      "type": "function"
    },
    {
      "inputs": [
        {
          "internalType": "address",
          "name": "voter",
          "type": "address"
        }
      ],
      "name": "getVoterStatus",
      "outputs": [
        {
          "internalType": "bool",
          "name": "",
          "type": "bool"
        }
      ],
      "stateMutability": "view",
      "type": "function",
      "constant": true
    },
    {
      "inputs": [
        {
          "internalType": "address",
          "name": "voter",
          "type": "address"
        }
      ],
      "name": "addVoters",
      "outputs": [],
      "stateMutability": "nonpayable",
      "type": "function"
    },
    {
      "inputs": [
        {
          "internalType": "address",
          "name": "airline",
          "type": "address"
        },
        {
          "internalType": "address",
          "name": "passenger",
          "type": "address"
        },
        {
          "internalType": "uint256",
          "name": "amount",
          "type": "uint256"
        }
      ],
      "name": "registerInsurance",
      "outputs": [],
      "stateMutability": "nonpayable",
      "type": "function"
    },
    {
      "inputs": [
        {
          "internalType": "address",
          "name": "airline",
          "type": "address"
        },
        {
          "internalType": "address",
          "name": "passenger",
          "type": "address"
        },
        {
          "internalType": "uint256",
          "name": "amount",
          "type": "uint256"
        }
      ],
      "name": "creditInsurees",
      "outputs": [],
      "stateMutability": "nonpayable",
      "type": "function"
    },
    {
      "inputs": [
        {
          "internalType": "address",
          "name": "airline",
          "type": "address"
        }
      ],
      "name": "getInsuredPassenger_amount",
      "outputs": [
        {
          "internalType": "address",
          "name": "",
          "type": "address"
        },
        {
          "internalType": "uint256",
          "name": "",
          "type": "uint256"
        }
      ],
      "stateMutability": "view",
      "type": "function",
      "constant": true
    },
    {
      "inputs": [
        {
          "internalType": "address",
          "name": "passenger",
          "type": "address"
        }
      ],
      "name": "getPassengerCredit",
      "outputs": [
        {
          "internalType": "uint256",
          "name": "",
          "type": "uint256"
        }
      ],
      "stateMutability": "view",
      "type": "function",
      "constant": true
    },
    {
      "inputs": [
        {
          "internalType": "address",
          "name": "passenger",
          "type": "address"
        }
      ],
      "name": "withdraw",
      "outputs": [
        {
          "internalType": "uint256",
          "name": "",
          "type": "uint256"
        }
      ],
      "stateMutability": "nonpayable",
      "type": "function"
    },
    {
      "inputs": [],
      "name": "multiCallsLength",
      "outputs": [
        {
          "internalType": "uint256",
          "name": "",
          "type": "uint256"
        }
      ],
      "stateMutability": "view",
      "type": "function",
      "constant": true
    }
  ],
  "bytecode": "0x60806040526001600060146101000a81548160ff021916908315150217905550600067ffffffffffffffff811180156200003857600080fd5b50604051908082528060200260200182016040528015620000685781602001602082028036833780820191505090505b506008908051906020019062000080929190620000d5565b503480156200008e57600080fd5b50336000806101000a81548173ffffffffffffffffffffffffffffffffffffffff021916908373ffffffffffffffffffffffffffffffffffffffff160217905550620001aa565b82805482825590600052602060002090810192821562000151579160200282015b82811115620001505782518260006101000a81548173ffffffffffffffffffffffffffffffffffffffff021916908373ffffffffffffffffffffffffffffffffffffffff16021790555091602001919060010190620000f6565b5b50905062000160919062000164565b5090565b620001a791905b80821115620001a357600081816101000a81549073ffffffffffffffffffffffffffffffffffffffff0219169055506001016200016b565b5090565b90565b6120ab80620001ba6000396000f3fe608060405234801561001057600080fd5b50600436106101425760003560e01c806378e3ef20116100b8578063cb4f3acb1161007c578063cb4f3acb1461066c578063cd905dff146106c8578063d1598dca146106ea578063f1a81e7214610758578063f1cba25e146107a6578063f98e1536146107f657610142565b806378e3ef20146104ae5780638b4b27741461050a57806394e2177a14610578578063a1a5faf1146105d0578063be5e04a61461061457610142565b80631f4cea0c1161010a5780631f4cea0c146102a55780632c388d5d146103305780634c105d1b1461037457806351cff8d9146103b8578063597f264f1461041057806371e63aee1461045e57610142565b806305b64e98146101475780630e248a111461019f578063110466ed146101fb578063174c7c651461022b5780631eeb885814610249575b600080fd5b6101896004803603602081101561015d57600080fd5b81019080803573ffffffffffffffffffffffffffffffffffffffff16906020019092919050505061083a565b6040518082815260200191505060405180910390f35b6101e1600480360360208110156101b557600080fd5b81019080803573ffffffffffffffffffffffffffffffffffffffff1690602001909291905050506108e7565b604051808215151515815260200191505060405180910390f35b6102296004803603602081101561021157600080fd5b810190808035151590602001909291905050506109e2565b005b610233610ac1565b6040518082815260200191505060405180910390f35b61028b6004803603602081101561025f57600080fd5b81019080803573ffffffffffffffffffffffffffffffffffffffff169060200190929190505050610b32565b604051808215151515815260200191505060405180910390f35b6102e7600480360360208110156102bb57600080fd5b81019080803573ffffffffffffffffffffffffffffffffffffffff169060200190929190505050610bef565b604051808373ffffffffffffffffffffffffffffffffffffffff1673ffffffffffffffffffffffffffffffffffffffff1681526020018281526020019250505060405180910390f35b6103726004803603602081101561034657600080fd5b81019080803573ffffffffffffffffffffffffffffffffffffffff169060200190929190505050610d06565b005b6103b66004803603602081101561038a57600080fd5b81019080803573ffffffffffffffffffffffffffffffffffffffff169060200190929190505050610e73565b005b6103fa600480360360208110156103ce57600080fd5b81019080803573ffffffffffffffffffffffffffffffffffffffff169060200190929190505050610f4f565b6040518082815260200191505060405180910390f35b61045c6004803603604081101561042657600080fd5b81019080803573ffffffffffffffffffffffffffffffffffffffff16906020019092919080359060200190929190505050611045565b005b6104ac6004803603604081101561047457600080fd5b81019080803573ffffffffffffffffffffffffffffffffffffffff169060200190929190803515159060200190929190505050611149565b005b6104f0600480360360208110156104c457600080fd5b81019080803573ffffffffffffffffffffffffffffffffffffffff16906020019092919050505061120c565b604051808215151515815260200191505060405180910390f35b6105766004803603606081101561052057600080fd5b81019080803573ffffffffffffffffffffffffffffffffffffffff169060200190929190803573ffffffffffffffffffffffffffffffffffffffff169060200190929190803590602001909291905050506112c9565b005b6105ba6004803603602081101561058e57600080fd5b81019080803573ffffffffffffffffffffffffffffffffffffffff169060200190929190505050611492565b6040518082815260200191505060405180910390f35b610612600480360360208110156105e657600080fd5b81019080803573ffffffffffffffffffffffffffffffffffffffff169060200190929190505050611542565b005b6106566004803603602081101561062a57600080fd5b81019080803573ffffffffffffffffffffffffffffffffffffffff1690602001909291905050506116ad565b6040518082815260200191505060405180910390f35b6106ae6004803603602081101561068257600080fd5b81019080803573ffffffffffffffffffffffffffffffffffffffff16906020019092919050505061175a565b604051808215151515815260200191505060405180910390f35b6106d0611817565b604051808215151515815260200191505060405180910390f35b6107566004803603606081101561070057600080fd5b81019080803573ffffffffffffffffffffffffffffffffffffffff169060200190929190803573ffffffffffffffffffffffffffffffffffffffff1690602001909291908035906020019092919050505061182d565b005b6107a46004803603604081101561076e57600080fd5b81019080803573ffffffffffffffffffffffffffffffffffffffff16906020019092919080359060200190929190505050611b45565b005b6107f4600480360360408110156107bc57600080fd5b81019080803573ffffffffffffffffffffffffffffffffffffffff169060200190929190803515159060200190929190505050611c09565b005b6108386004803603602081101561080c57600080fd5b81019080803573ffffffffffffffffffffffffffffffffffffffff169060200190929190505050611d17565b005b60008060149054906101000a900460ff166108a0576040517f08c379a00000000000000000000000000000000000000000000000000000000081526004018080602001828103825260258152602001806120286025913960400191505060405180910390fd5b600760008373ffffffffffffffffffffffffffffffffffffffff1673ffffffffffffffffffffffffffffffffffffffff168152602001908152602001600020549050919050565b60008073ffffffffffffffffffffffffffffffffffffffff168273ffffffffffffffffffffffffffffffffffffffff16141561098b576040517f08c379a000000000000000000000000000000000000000000000000000000000815260040180806020018281038252601c8152602001807f726571756573746564206169726c696e6520697320696e76616c69640000000081525060200191505060405180910390fd5b600160008373ffffffffffffffffffffffffffffffffffffffff1673ffffffffffffffffffffffffffffffffffffffff16815260200190815260200160002060000160009054906101000a900460ff169050919050565b6000809054906101000a900473ffffffffffffffffffffffffffffffffffffffff1673ffffffffffffffffffffffffffffffffffffffff163373ffffffffffffffffffffffffffffffffffffffff1614610aa4576040517f08c379a000000000000000000000000000000000000000000000000000000000815260040180806020018281038252601c8152602001807f43616c6c6572206973206e6f7420636f6e7472616374206f776e65720000000081525060200191505060405180910390fd5b80600060146101000a81548160ff02191690831515021790555050565b60008060149054906101000a900460ff16610b27576040517f08c379a00000000000000000000000000000000000000000000000000000000081526004018080602001828103825260258152602001806120286025913960400191505060405180910390fd5b600880549050905090565b60008060149054906101000a900460ff16610b98576040517f08c379a00000000000000000000000000000000000000000000000000000000081526004018080602001828103825260258152602001806120286025913960400191505060405180910390fd5b600160008373ffffffffffffffffffffffffffffffffffffffff1673ffffffffffffffffffffffffffffffffffffffff16815260200190815260200160002060000160009054906101000a900460ff169050919050565b600080600060149054906101000a900460ff16610c57576040517f08c379a00000000000000000000000000000000000000000000000000000000081526004018080602001828103825260258152602001806120286025913960400191505060405180910390fd5b600260008473ffffffffffffffffffffffffffffffffffffffff1673ffffffffffffffffffffffffffffffffffffffff16815260200190815260200160002060000160009054906101000a900473ffffffffffffffffffffffffffffffffffffffff16600260008573ffffffffffffffffffffffffffffffffffffffff1673ffffffffffffffffffffffffffffffffffffffff1681526020019081526020016000206001015491509150915091565b6000809054906101000a900473ffffffffffffffffffffffffffffffffffffffff1673ffffffffffffffffffffffffffffffffffffffff163373ffffffffffffffffffffffffffffffffffffffff1614610dc8576040517f08c379a000000000000000000000000000000000000000000000000000000000815260040180806020018281038252601c8152602001807f43616c6c6572206973206e6f7420636f6e7472616374206f776e65720000000081525060200191505060405180910390fd5b6001600560008373ffffffffffffffffffffffffffffffffffffffff1673ffffffffffffffffffffffffffffffffffffffff168152602001908152602001600020819055507f2c74592fddad593c2c4403101ce9b30930711ab87571268ddd1e1989ee1d791781604051808273ffffffffffffffffffffffffffffffffffffffff1673ffffffffffffffffffffffffffffffffffffffff16815260200191505060405180910390a150565b600060149054906101000a900460ff16610ed8576040517f08c379a00000000000000000000000000000000000000000000000000000000081526004018080602001828103825260258152602001806120286025913960400191505060405180910390fd5b604051806020016040528060011515815250600460008373ffffffffffffffffffffffffffffffffffffffff1673ffffffffffffffffffffffffffffffffffffffff16815260200190815260200160002060008201518160000160006101000a81548160ff02191690831515021790555090505050565b60008060149054906101000a900460ff16610fb5576040517f08c379a00000000000000000000000000000000000000000000000000000000081526004018080602001828103825260258152602001806120286025913960400191505060405180910390fd5b6000600760008473ffffffffffffffffffffffffffffffffffffffff1673ffffffffffffffffffffffffffffffffffffffff168152602001908152602001600020549050600760008473ffffffffffffffffffffffffffffffffffffffff1673ffffffffffffffffffffffffffffffffffffffff1681526020019081526020016000206000905580915050919050565b600060149054906101000a900460ff166110aa576040517f08c379a00000000000000000000000000000000000000000000000000000000081526004018080602001828103825260258152602001806120286025913960400191505060405180910390fd5b6000600660008473ffffffffffffffffffffffffffffffffffffffff1673ffffffffffffffffffffffffffffffffffffffff1681526020019081526020016000205490506111018282611dc290919063ffffffff16565b600660008573ffffffffffffffffffffffffffffffffffffffff1673ffffffffffffffffffffffffffffffffffffffff16815260200190815260200160002081905550505050565b600060149054906101000a900460ff166111ae576040517f08c379a00000000000000000000000000000000000000000000000000000000081526004018080602001828103825260258152602001806120286025913960400191505060405180910390fd5b80600160008473ffffffffffffffffffffffffffffffffffffffff1673ffffffffffffffffffffffffffffffffffffffff16815260200190815260200160002060000160016101000a81548160ff0219169083151502179055505050565b60008060149054906101000a900460ff16611272576040517f08c379a00000000000000000000000000000000000000000000000000000000081526004018080602001828103825260258152602001806120286025913960400191505060405180910390fd5b600460008373ffffffffffffffffffffffffffffffffffffffff1673ffffffffffffffffffffffffffffffffffffffff16815260200190815260200160002060000160009054906101000a900460ff169050919050565b600060149054906101000a900460ff1661132e576040517f08c379a00000000000000000000000000000000000000000000000000000000081526004018080602001828103825260258152602001806120286025913960400191505060405180910390fd5b60405180604001604052808373ffffffffffffffffffffffffffffffffffffffff16815260200182815250600260008573ffffffffffffffffffffffffffffffffffffffff1673ffffffffffffffffffffffffffffffffffffffff16815260200190815260200160002060008201518160000160006101000a81548173ffffffffffffffffffffffffffffffffffffffff021916908373ffffffffffffffffffffffffffffffffffffffff160217905550602082015181600101559050506000600360008573ffffffffffffffffffffffffffffffffffffffff1673ffffffffffffffffffffffffffffffffffffffff1681526020019081526020016000206000015490506114468282611dc290919063ffffffff16565b600360008673ffffffffffffffffffffffffffffffffffffffff1673ffffffffffffffffffffffffffffffffffffffff1681526020019081526020016000206000018190555050505050565b60008060149054906101000a900460ff166114f8576040517f08c379a00000000000000000000000000000000000000000000000000000000081526004018080602001828103825260258152602001806120286025913960400191505060405180910390fd5b600360008373ffffffffffffffffffffffffffffffffffffffff1673ffffffffffffffffffffffffffffffffffffffff168152602001908152602001600020600001549050919050565b6000809054906101000a900473ffffffffffffffffffffffffffffffffffffffff1673ffffffffffffffffffffffffffffffffffffffff163373ffffffffffffffffffffffffffffffffffffffff1614611604576040517f08c379a000000000000000000000000000000000000000000000000000000000815260040180806020018281038252601c8152602001807f43616c6c6572206973206e6f7420636f6e7472616374206f776e65720000000081525060200191505060405180910390fd5b600560008273ffffffffffffffffffffffffffffffffffffffff1673ffffffffffffffffffffffffffffffffffffffff168152602001908152602001600020600090557fd5cf915bcf19ee4a2edf05f0add6e4520e02eda58f4b4a99387be2a7ae79cefb81604051808273ffffffffffffffffffffffffffffffffffffffff1673ffffffffffffffffffffffffffffffffffffffff16815260200191505060405180910390a150565b60008060149054906101000a900460ff16611713576040517f08c379a00000000000000000000000000000000000000000000000000000000081526004018080602001828103825260258152602001806120286025913960400191505060405180910390fd5b600660008373ffffffffffffffffffffffffffffffffffffffff1673ffffffffffffffffffffffffffffffffffffffff168152602001908152602001600020549050919050565b60008060149054906101000a900460ff166117c0576040517f08c379a00000000000000000000000000000000000000000000000000000000081526004018080602001828103825260258152602001806120286025913960400191505060405180910390fd5b600160008373ffffffffffffffffffffffffffffffffffffffff1673ffffffffffffffffffffffffffffffffffffffff16815260200190815260200160002060000160019054906101000a900460ff169050919050565b60008060149054906101000a900460ff16905090565b600060149054906101000a900460ff16611892576040517f08c379a00000000000000000000000000000000000000000000000000000000081526004018080602001828103825260258152602001806120286025913960400191505060405180910390fd5b600073ffffffffffffffffffffffffffffffffffffffff168273ffffffffffffffffffffffffffffffffffffffff16141580156118fc5750600073ffffffffffffffffffffffffffffffffffffffff168373ffffffffffffffffffffffffffffffffffffffff1614155b611951576040517f08c379a000000000000000000000000000000000000000000000000000000000815260040180806020018281038252602981526020018061204d6029913960400191505060405180910390fd5b8173ffffffffffffffffffffffffffffffffffffffff16600260008573ffffffffffffffffffffffffffffffffffffffff1673ffffffffffffffffffffffffffffffffffffffff16815260200190815260200160002060000160009054906101000a900473ffffffffffffffffffffffffffffffffffffffff1673ffffffffffffffffffffffffffffffffffffffff1614611a37576040517f08c379a0000000000000000000000000000000000000000000000000000000008152600401808060200182810382526022815260200180611fc06022913960400191505060405180910390fd5b6000611aa16003611a9360028060008973ffffffffffffffffffffffffffffffffffffffff1673ffffffffffffffffffffffffffffffffffffffff16815260200190815260200160002060010154611e4a90919063ffffffff16565b611ed390919063ffffffff16565b9050818114611afb576040517f08c379a0000000000000000000000000000000000000000000000000000000008152600401808060200182810382526025815260200180611fe26025913960400191505060405180910390fd5b81600760008573ffffffffffffffffffffffffffffffffffffffff1673ffffffffffffffffffffffffffffffffffffffff1681526020019081526020016000208190555050505050565b600060149054906101000a900460ff16611baa576040517f08c379a00000000000000000000000000000000000000000000000000000000081526004018080602001828103825260258152602001806120286025913960400191505060405180910390fd5b604051806020016040528082815250600360008473ffffffffffffffffffffffffffffffffffffffff1673ffffffffffffffffffffffffffffffffffffffff168152602001908152602001600020600082015181600001559050505050565b600060149054906101000a900460ff16611c6e576040517f08c379a00000000000000000000000000000000000000000000000000000000081526004018080602001828103825260258152602001806120286025913960400191505060405180910390fd5b6040518060400160405280600115158152602001821515815250600160008473ffffffffffffffffffffffffffffffffffffffff1673ffffffffffffffffffffffffffffffffffffffff16815260200190815260200160002060008201518160000160006101000a81548160ff02191690831515021790555060208201518160000160016101000a81548160ff021916908315150217905550905050611d1382611f59565b5050565b600060149054906101000a900460ff16611d7c576040517f08c379a00000000000000000000000000000000000000000000000000000000081526004018080602001828103825260258152602001806120286025913960400191505060405180910390fd5b600660008273ffffffffffffffffffffffffffffffffffffffff1673ffffffffffffffffffffffffffffffffffffffff1681526020019081526020016000206000905550565b600080828401905083811015611e40576040517f08c379a000000000000000000000000000000000000000000000000000000000815260040180806020018281038252601b8152602001807f536166654d6174683a206164646974696f6e206f766572666c6f77000000000081525060200191505060405180910390fd5b8091505092915050565b6000808211611ec1576040517f08c379a000000000000000000000000000000000000000000000000000000000815260040180806020018281038252601a8152602001807f536166654d6174683a206469766973696f6e206279207a65726f00000000000081525060200191505060405180910390fd5b818381611eca57fe5b04905092915050565b600080831415611ee65760009050611f53565b6000828402905082848281611ef757fe5b0414611f4e576040517f08c379a00000000000000000000000000000000000000000000000000000000081526004018080602001828103825260218152602001806120076021913960400191505060405180910390fd5b809150505b92915050565b6008819080600181540180825580915050600190039060005260206000200160009091909190916101000a81548173ffffffffffffffffffffffffffffffffffffffff021916908373ffffffffffffffffffffffffffffffffffffffff1602179055505056fe5265717565737465642050617373656e676572206973206e6f7420696e737572656452657175657374656420696e737572616e636520616d6f756e7420697320696e76616c6964536166654d6174683a206d756c7469706c69636174696f6e206f766572666c6f77436f6e74726163742069732063757272656e746c79206e6f74206f7065726174696f6e616c726571756573746564206169726c696e65206f722070617373656e67657220697320696e76616c6964a2646970667358221220665a6e692fa83e17d72026bc36202adad1a01d77aa1927a9255124d0682899c164736f6c63430006050033",
  "immutableReferences": {},
  "source": "pragma solidity >=0.6.0 <0.8.0;\n\nimport \"../node_modules/@openzeppelin/contracts/math/SafeMath.sol\";\n\ncontract FlightSuretyData {\n  using SafeMath for uint256;\n\n  //==========================================\n  // DATA VARIABLES\n  //==========================================\n\n  struct Airlines {\n    bool isRegistered;    // true when airline is added\n    bool isOperational;   // true when seed amount is deposited\n  }\n\n  struct Insurance {\n    address passenger;\n    uint256 amount;\n  }\n\n  struct Fund {\n    uint256 amount;\n  }\n\n  struct Voters {\n    bool status;\n  }\n\n  // Acc used to deploy contract\n  address private contractOwner;\n  bool private operational = true;\n\n  mapping(address => Airlines) airlines;\n  mapping(address => Insurance) insurance;\n  mapping(address => Fund) fund;\n  mapping(address => Voters) voters;\n  mapping(address => uint256) private authorizedCaller;\n  mapping(address => uint256) private voteCount;\n  mapping(address => uint256) balances;\n\n  address[] multiCalls = new address[](0);\n\n\n  //==========================================\n  // EVENTS\n  //==========================================\n\n  event AuthorizedContract(address authContract);\n  event DeAuthorizedContract(address authContract);\n\n\n  //==========================================\n  // MODIFIERS\n  //==========================================\n\n  modifier requireIsOperational() {\n    require(operational, \"Contract is currently not operational\");\n    _;\n  }\n\n  modifier requireContractOwner() {\n    require(msg.sender == contractOwner, \"Caller is not contract owner\");\n    _;\n  }\n\n\n  //==========================================\n  // CONSTRUCTOR & UTILITY\n  //==========================================\n  \n  constructor() public {\n    contractOwner = msg.sender;\n  }\n\n  function isOperational() public view returns(bool){\n    return operational;\n  }\n\n  function setOperatingStatus(bool mode) external requireContractOwner{\n    operational = mode;\n  }\n\n  function authorizeCaller(address newContractAddress) external requireContractOwner {\n    authorizedCaller[newContractAddress] = 1;\n    emit AuthorizedContract(newContractAddress);\n  }\n\n  function deAuthorizeContract(address prevContractAddress) external requireContractOwner {\n    delete authorizedCaller[prevContractAddress];\n    emit DeAuthorizedContract(prevContractAddress);\n  }\n\n\n  //====================================================================================\n  //                            SMART CONTRACT FUNCTIONS\n  //====================================================================================\n\n  //==========================================\n  // Getters & Setters for Airline Struct\n\n  // Add an airline to the registration queue\n  // Can only be called from FlightSuretyApp contract  \n function _registerAirline(address account, bool airlineOpStatus) external requireIsOperational {\n   airlines[account] = Airlines({\n    isRegistered: true,\n    isOperational: airlineOpStatus\n   });\n   setmultiCalls(account);\n }\n\n  function getAirlineOperatingStatus(address account) external view requireIsOperational returns(bool) {\n    return airlines[account].isOperational;\n  }\n\n  function setAirlineOperatingStatus(address account, bool status) external requireIsOperational {\n    airlines[account].isOperational = status;\n  }\n\n  function getAirlineRegistrationStatus(address account) external view requireIsOperational returns(bool){\n    return airlines[account].isRegistered;\n  }\n\n  function fundAirline(address airline, uint256 amount) external requireIsOperational {\n    fund[airline] = Fund({\n      amount: amount\n    });\n  }\n\n  function getAirlineFunding(address airline) external view requireIsOperational returns(uint256) {\n    return fund[airline].amount;\n  }\n\n  function isAirline(address airline) external view returns(bool) {\n    require(airline != address(0), \"requested airline is invalid\");\n    return airlines[airline].isRegistered;\n  }\n  \n  //==========================================\n  // Getters & Setters for voteCount mapping & Voters Struct\n\n  function getVoteCounter(address account) external requireIsOperational view returns(uint) {\n    return voteCount[account];\n  }\n\n  function addVoterCounter(address airline, uint count) external requireIsOperational {\n    uint256 votes = voteCount[airline];\n    voteCount[airline] = votes.add(count);\n  }\n\n  function resetVoteCounter(address account) external requireIsOperational {\n    delete voteCount[account];\n  }\n\n  function getVoterStatus(address voter) external requireIsOperational view returns(bool) {\n    return voters[voter].status;\n  }\n\n  function addVoters(address voter) external requireIsOperational {\n    voters[voter] = Voters({\n      status: true\n    });\n  }\n\n  //==========================================\n  // Passenger & Insurance related functions\n\n  function registerInsurance(address airline, address passenger, uint256 amount) external requireIsOperational {\n    insurance[airline] = Insurance({\n      passenger: passenger,\n      amount: amount\n    });\n    // Add Insurance Funds to airline\n    uint256 airlineFund = fund[airline].amount;\n    fund[airline].amount = airlineFund.add(amount);\n  }\n\n  // Credits payouts to insurees\n  function creditInsurees(address airline, address passenger, uint256 amount) external requireIsOperational {\n    // Check Validations\n    require(passenger != address(0) && airline != address(0), \"requested airline or passenger is invalid\");\n    require(insurance[airline].passenger == passenger, \"Requested Passenger is not insured\");\n    \n    uint256 insuranceAmount = insurance[airline].amount.div(2).mul(3);\n    require(insuranceAmount == amount, \"Requested insurance amount is invalid\");\n\n    // Transfer insurance fund to passenger's balance\n    balances[passenger] = amount;\n  }\n\n  function getInsuredPassenger_amount(address airline) external requireIsOperational view returns(address, uint256) {\n    return (insurance[airline].passenger, insurance[airline].amount);\n  }\n\n  function getPassengerCredit(address passenger) external requireIsOperational view returns(uint256) {\n    return balances[passenger];\n  }\n\n  function withdraw(address passenger) external requireIsOperational returns(uint256) {\n    uint256 amountToWithdraw = balances[passenger];\n    delete balances[passenger];\n\n    return amountToWithdraw;\n  }\n\n\n  //==========================================\n  // Utility multicalls\n\n  function multiCallsLength() external requireIsOperational view returns (uint){\n      return multiCalls.length;\n  }\n\n  function setmultiCalls(address account) private {\n      multiCalls.push(account);\n  }\n\n\n  function getFlightKey(address airline, string memory flight, uint256 timestamp) pure internal returns(bytes32) {\n    return keccak256(abi.encodePacked(airline, flight, timestamp));\n  }\n\n  // Initial funding for the insurance. Unless there are too many delayed flights\n  // resulting in insurance payouts, the contract should be self-sustaining\n  // function fund() public payable {\n  // }\n  // // Fallback function for funding smart contract.\n  // fallback() external payable {\n  //   fund();\n  // }\n}",
  "sourcePath": "/Users/tomdemoor/Documents/Udacity Submit/Udacity - Flight Surety Dapp/contracts/FlightSuretyData.sol",
  "compiler": {
    "name": "solc",
    "version": "0.6.5+commit.f956cc89.Emscripten.clang"
  },
  "schemaVersion": "3.3.4",
  "updatedAt": "2021-04-17T22:00:07.101Z",
  "networkType": "ethereum",
  "devdoc": {
    "methods": {}
  },
  "userdoc": {
    "methods": {}
  }
}