{
  "contractName": "FlightSuretyApp",
  "abi": [
    {
      "inputs": [
        {
          "internalType": "address",
          "name": "dataContract",
          "type": "address"
        }
      ],
      "stateMutability": "nonpayable",
      "type": "constructor"
    },
    {
      "anonymous": false,
      "inputs": [
        {
          "indexed": false,
          "internalType": "address",
          "name": "airline",
          "type": "address"
        },
        {
          "indexed": false,
          "internalType": "address",
          "name": "passenger",
          "type": "address"
        },
        {
          "indexed": false,
          "internalType": "uint256",
          "name": "credit",
          "type": "uint256"
        }
      ],
      "name": "CreditInsurees",
      "type": "event"
    },
    {
      "anonymous": false,
      "inputs": [
        {
          "indexed": false,
          "internalType": "address",
          "name": "airline",
          "type": "address"
        },
        {
          "indexed": false,
          "internalType": "string",
          "name": "flight",
          "type": "string"
        },
        {
          "indexed": false,
          "internalType": "uint256",
          "name": "timestamp",
          "type": "uint256"
        },
        {
          "indexed": false,
          "internalType": "uint8",
          "name": "status",
          "type": "uint8"
        }
      ],
      "name": "FlightStatusInfo",
      "type": "event"
    },
    {
      "anonymous": false,
      "inputs": [
        {
          "indexed": false,
          "internalType": "address",
          "name": "funded",
          "type": "address"
        },
        {
          "indexed": false,
          "internalType": "uint256",
          "name": "value",
          "type": "uint256"
        }
      ],
      "name": "FundedAirlines",
      "type": "event"
    },
    {
      "anonymous": false,
      "inputs": [
        {
          "indexed": false,
          "internalType": "address",
          "name": "airline",
          "type": "address"
        },
        {
          "indexed": false,
          "internalType": "string",
          "name": "flight",
          "type": "string"
        },
        {
          "indexed": false,
          "internalType": "uint256",
          "name": "timestamp",
          "type": "uint256"
        },
        {
          "indexed": false,
          "internalType": "uint8",
          "name": "status",
          "type": "uint8"
        }
      ],
      "name": "OracleReport",
      "type": "event"
    },
    {
      "anonymous": false,
      "inputs": [
        {
          "indexed": false,
          "internalType": "uint8",
          "name": "index",
          "type": "uint8"
        },
        {
          "indexed": false,
          "internalType": "address",
          "name": "airline",
          "type": "address"
        },
        {
          "indexed": false,
          "internalType": "string",
          "name": "flight",
          "type": "string"
        },
        {
          "indexed": false,
          "internalType": "uint256",
          "name": "timestamp",
          "type": "uint256"
        }
      ],
      "name": "OracleRequest",
      "type": "event"
    },
    {
      "anonymous": false,
      "inputs": [
        {
          "indexed": false,
          "internalType": "address",
          "name": "airline",
          "type": "address"
        },
        {
          "indexed": false,
          "internalType": "address",
          "name": "sender",
          "type": "address"
        },
        {
          "indexed": false,
          "internalType": "uint256",
          "name": "amount",
          "type": "uint256"
        }
      ],
      "name": "PurchaseInsurance",
      "type": "event"
    },
    {
      "anonymous": false,
      "inputs": [
        {
          "indexed": false,
          "internalType": "address",
          "name": "account",
          "type": "address"
        }
      ],
      "name": "RegisterAirline",
      "type": "event"
    },
    {
      "anonymous": false,
      "inputs": [
        {
          "indexed": false,
          "internalType": "uint8",
          "name": "indexes",
          "type": "uint8"
        },
        {
          "indexed": false,
          "internalType": "address",
          "name": "airline",
          "type": "address"
        },
        {
          "indexed": false,
          "internalType": "string",
          "name": "flight",
          "type": "string"
        },
        {
          "indexed": false,
          "internalType": "uint256",
          "name": "timestamp",
          "type": "uint256"
        },
        {
          "indexed": false,
          "internalType": "uint8",
          "name": "statusCode",
          "type": "uint8"
        }
      ],
      "name": "SubmitOracleResponse",
      "type": "event"
    },
    {
      "anonymous": false,
      "inputs": [
        {
          "indexed": false,
          "internalType": "address",
          "name": "sender",
          "type": "address"
        },
        {
          "indexed": false,
          "internalType": "uint256",
          "name": "amount",
          "type": "uint256"
        }
      ],
      "name": "Withdraw",
      "type": "event"
    },
    {
      "inputs": [],
      "name": "REGISTRATION_FEE",
      "outputs": [
        {
          "internalType": "uint256",
          "name": "",
          "type": "uint256"
        }
      ],
      "stateMutability": "view",
      "type": "function",
      "constant": true
    },
    {
      "inputs": [],
      "name": "isOperational",
      "outputs": [
        {
          "internalType": "bool",
          "name": "",
          "type": "bool"
        }
      ],
      "stateMutability": "view",
      "type": "function",
      "constant": true
    },
    {
      "inputs": [
        {
          "internalType": "address",
          "name": "airline",
          "type": "address"
        }
      ],
      "name": "registerAirline",
      "outputs": [
        {
          "internalType": "bool",
          "name": "",
          "type": "bool"
        },
        {
          "internalType": "bool",
          "name": "",
          "type": "bool"
        }
      ],
      "stateMutability": "nonpayable",
      "type": "function"
    },
    {
      "inputs": [
        {
          "internalType": "address",
          "name": "airline",
          "type": "address"
        },
        {
          "internalType": "bool",
          "name": "airline_vote",
          "type": "bool"
        }
      ],
      "name": "approveAirlineRegistration",
      "outputs": [],
      "stateMutability": "nonpayable",
      "type": "function"
    },
    {
      "inputs": [],
      "name": "fund",
      "outputs": [],
      "stateMutability": "payable",
      "type": "function",
      "payable": true
    },
    {
      "inputs": [
        {
          "internalType": "address",
          "name": "airline",
          "type": "address"
        },
        {
          "internalType": "uint8",
          "name": "statusCode",
          "type": "uint8"
        }
      ],
      "name": "processFlightStatus",
      "outputs": [],
      "stateMutability": "nonpayable",
      "type": "function"
    },
    {
      "inputs": [
        {
          "internalType": "address",
          "name": "airline",
          "type": "address"
        },
        {
          "internalType": "string",
          "name": "flight",
          "type": "string"
        },
        {
          "internalType": "uint256",
          "name": "timestamp",
          "type": "uint256"
        }
      ],
      "name": "fetchFlightStatus",
      "outputs": [],
      "stateMutability": "nonpayable",
      "type": "function"
    },
    {
      "inputs": [
        {
          "internalType": "address",
          "name": "airline",
          "type": "address"
        }
      ],
      "name": "buy",
      "outputs": [],
      "stateMutability": "payable",
      "type": "function",
      "payable": true
    },
    {
      "inputs": [],
      "name": "getPassenger_CreditedAmount",
      "outputs": [
        {
          "internalType": "uint256",
          "name": "",
          "type": "uint256"
        }
      ],
      "stateMutability": "nonpayable",
      "type": "function"
    },
    {
      "inputs": [],
      "name": "withdraw",
      "outputs": [],
      "stateMutability": "nonpayable",
      "type": "function"
    },
    {
      "inputs": [],
      "name": "registerOracle",
      "outputs": [],
      "stateMutability": "payable",
      "type": "function",
      "payable": true
    },
    {
      "inputs": [],
      "name": "getMyIndexes",
      "outputs": [
        {
          "internalType": "uint8[3]",
          "name": "",
          "type": "uint8[3]"
        }
      ],
      "stateMutability": "view",
      "type": "function",
      "constant": true
    },
    {
      "inputs": [
        {
          "internalType": "uint8",
          "name": "index",
          "type": "uint8"
        },
        {
          "internalType": "address",
          "name": "airline",
          "type": "address"
        },
        {
          "internalType": "string",
          "name": "flight",
          "type": "string"
        },
        {
          "internalType": "uint256",
          "name": "timestamp",
          "type": "uint256"
        },
        {
          "internalType": "uint8",
          "name": "statusCode",
          "type": "uint8"
        }
      ],
      "name": "submitOracleResponse",
      "outputs": [],
      "stateMutability": "nonpayable",
      "type": "function"
    }
  ],
  "bytecode": "0x60806040526000600160146101000a81548160ff02191690831515021790555060018060156101000a81548160ff0219169083151502179055506000600360006101000a81548160ff021916908360ff16021790555034801561006157600080fd5b506040516200359f3803806200359f8339818101604052602081101561008657600080fd5b8101908080519060200190929190505050336000806101000a81548173ffffffffffffffffffffffffffffffffffffffff021916908373ffffffffffffffffffffffffffffffffffffffff16021790555080600160006101000a81548173ffffffffffffffffffffffffffffffffffffffff021916908373ffffffffffffffffffffffffffffffffffffffff160217905550600160009054906101000a900473ffffffffffffffffffffffffffffffffffffffff1673ffffffffffffffffffffffffffffffffffffffff1663f1cba25e6000809054906101000a900473ffffffffffffffffffffffffffffffffffffffff1660016040518363ffffffff1660e01b8152600401808373ffffffffffffffffffffffffffffffffffffffff1673ffffffffffffffffffffffffffffffffffffffff1681526020018215151515815260200192505050600060405180830381600087803b1580156101e757600080fd5b505af11580156101fb573d6000803e3d6000fd5b505050507fac78ffce05a964fd93df05896e78ca7d509ad473c8ac2aee9009a32a60afa9516000809054906101000a900473ffffffffffffffffffffffffffffffffffffffff16604051808273ffffffffffffffffffffffffffffffffffffffff1673ffffffffffffffffffffffffffffffffffffffff16815260200191505060405180910390a15061330b80620002946000396000f3fe6080604052600436106100c25760003560e01c80638918dc491161007f578063c10f270011610059578063c10f2700146102ca578063cd905dff14610394578063f088d547146103c3578063f83f11c014610407576100c2565b80638918dc4914610221578063b60d42881461024c578063bdfd987714610256576100c2565b8063339d2590146100c75780633ccfd60b146100d15780635f1cc0e6146100e857806364b4f7511461013b57806367efbf151461016657806373bf3ddc146101c3575b600080fd5b6100cf6104b7565b005b3480156100dd57600080fd5b506100e66105c0565b005b3480156100f457600080fd5b506100fd6108fd565b6040518082600360200280838360005b8381101561012857808201518184015260208101905061010d565b5050505090500191505060405180910390f35b34801561014757600080fd5b50610150610a70565b6040518082815260200191505060405180910390f35b34801561017257600080fd5b506101c16004803603604081101561018957600080fd5b81019080803573ffffffffffffffffffffffffffffffffffffffff169060200190929190803515159060200190929190505050610a7c565b005b3480156101cf57600080fd5b5061021f600480360360408110156101e657600080fd5b81019080803573ffffffffffffffffffffffffffffffffffffffff169060200190929190803560ff169060200190929190505050611075565b005b34801561022d57600080fd5b50610236611481565b6040518082815260200191505060405180910390f35b610254611569565b005b34801561026257600080fd5b506102a56004803603602081101561027957600080fd5b81019080803573ffffffffffffffffffffffffffffffffffffffff169060200190929190505050611980565b6040518083151515158152602001821515151581526020019250505060405180910390f35b3480156102d657600080fd5b50610392600480360360a08110156102ed57600080fd5b81019080803560ff169060200190929190803573ffffffffffffffffffffffffffffffffffffffff1690602001909291908035906020019064010000000081111561033757600080fd5b82018360208201111561034957600080fd5b8035906020019184600183028401116401000000008311171561036b57600080fd5b909192939192939080359060200190929190803560ff169060200190929190505050612293565b005b3480156103a057600080fd5b506103a96127a1565b604051808215151515815260200191505060405180910390f35b610405600480360360208110156103d957600080fd5b81019080803573ffffffffffffffffffffffffffffffffffffffff1690602001909291905050506127b8565b005b34801561041357600080fd5b506104b56004803603606081101561042a57600080fd5b81019080803573ffffffffffffffffffffffffffffffffffffffff1690602001909291908035906020019064010000000081111561046757600080fd5b82018360208201111561047957600080fd5b8035906020019184600183028401116401000000008311171561049b57600080fd5b909192939192939080359060200190929190505050612b61565b005b670de0b6b3a7640000341015610518576040517f08c379a00000000000000000000000000000000000000000000000000000000081526004018080602001828103825260278152602001806132696027913960400191505060405180910390fd5b6105206130dd565b61052933612d52565b9050604051806040016040528060011515815260200182815250600460003373ffffffffffffffffffffffffffffffffffffffff1673ffffffffffffffffffffffffffffffffffffffff16815260200190815260200160002060008201518160000160006101000a81548160ff0219169083151502179055506020820151816001019060036105b99291906130ff565b5090505050565b6001610617576040517f08c379a00000000000000000000000000000000000000000000000000000000081526004018080602001828103825260258152602001806132b16025913960400191505060405180910390fd5b6000600160009054906101000a900473ffffffffffffffffffffffffffffffffffffffff1673ffffffffffffffffffffffffffffffffffffffff166305b64e98336040518263ffffffff1660e01b8152600401808273ffffffffffffffffffffffffffffffffffffffff1673ffffffffffffffffffffffffffffffffffffffff168152602001915050602060405180830381600087803b1580156106ba57600080fd5b505af11580156106ce573d6000803e3d6000fd5b505050506040513d60208110156106e457600080fd5b810190808051906020019092919050505011610768576040517f08c379a000000000000000000000000000000000000000000000000000000000815260040180806020018281038252601e8152602001807f496e73756666696369656e742066756e647320746f207769746864726177000081525060200191505060405180910390fd5b6000600160009054906101000a900473ffffffffffffffffffffffffffffffffffffffff1673ffffffffffffffffffffffffffffffffffffffff166351cff8d9336040518263ffffffff1660e01b8152600401808273ffffffffffffffffffffffffffffffffffffffff1673ffffffffffffffffffffffffffffffffffffffff168152602001915050602060405180830381600087803b15801561080b57600080fd5b505af115801561081f573d6000803e3d6000fd5b505050506040513d602081101561083557600080fd5b810190808051906020019092919050505090503373ffffffffffffffffffffffffffffffffffffffff166108fc829081150290604051600060405180830381858888f1935050505015801561088e573d6000803e3d6000fd5b507f884edad9ce6fa2440d8a54cc123490eb96d2768479d49ff9c7366125a94243643382604051808373ffffffffffffffffffffffffffffffffffffffff1673ffffffffffffffffffffffffffffffffffffffff1681526020018281526020019250505060405180910390a150565b6109056130dd565b600460003373ffffffffffffffffffffffffffffffffffffffff1673ffffffffffffffffffffffffffffffffffffffff16815260200190815260200160002060000160009054906101000a900460ff166109c7576040517f08c379a000000000000000000000000000000000000000000000000000000000815260040180806020018281038252601b8152602001807f4e6f74207265676973746572656420617320616e206f7261636c65000000000081525060200191505060405180910390fd5b600460003373ffffffffffffffffffffffffffffffffffffffff1673ffffffffffffffffffffffffffffffffffffffff168152602001908152602001600020600101600380602002604051908101604052809291908260038015610a66576020028201916000905b82829054906101000a900460ff1660ff1681526020019060010190602082600001049283019260010382029150808411610a2f5790505b5050505050905090565b670de0b6b3a764000081565b6001610ad3576040517f08c379a00000000000000000000000000000000000000000000000000000000081526004018080602001828103825260258152602001806132b16025913960400191505060405180910390fd5b600160009054906101000a900473ffffffffffffffffffffffffffffffffffffffff1673ffffffffffffffffffffffffffffffffffffffff16631eeb8858836040518263ffffffff1660e01b8152600401808273ffffffffffffffffffffffffffffffffffffffff1673ffffffffffffffffffffffffffffffffffffffff168152602001915050602060405180830381600087803b158015610b7457600080fd5b505af1158015610b88573d6000803e3d6000fd5b505050506040513d6020811015610b9e57600080fd5b810190808051906020019092919050505015610c22576040517f08c379a000000000000000000000000000000000000000000000000000000000815260040180806020018281038252601a8152602001807f6169726c696e6520616c7265616479207265676973746572656400000000000081525060200191505060405180910390fd5b600160009054906101000a900473ffffffffffffffffffffffffffffffffffffffff1673ffffffffffffffffffffffffffffffffffffffff1663cb4f3acb336040518263ffffffff1660e01b8152600401808273ffffffffffffffffffffffffffffffffffffffff1673ffffffffffffffffffffffffffffffffffffffff168152602001915050602060405180830381600087803b158015610cc357600080fd5b505af1158015610cd7573d6000803e3d6000fd5b505050506040513d6020811015610ced57600080fd5b8101908080519060200190929190505050610d70576040517f08c379a00000000000000000000000000000000000000000000000000000000081526004018080602001828103825260178152602001807f6169726c696e65206e6f74206f7065726174696f6e616c00000000000000000081525060200191505060405180910390fd5b600115158115151415611057576000809050600060019050600160009054906101000a900473ffffffffffffffffffffffffffffffffffffffff1673ffffffffffffffffffffffffffffffffffffffff166378e3ef20336040518263ffffffff1660e01b8152600401808273ffffffffffffffffffffffffffffffffffffffff1673ffffffffffffffffffffffffffffffffffffffff168152602001915050602060405180830381600087803b158015610e2957600080fd5b505af1158015610e3d573d6000803e3d6000fd5b505050506040513d6020811015610e5357600080fd5b810190808051906020019092919050505091508115610eda576040517f08c379a00000000000000000000000000000000000000000000000000000000081526004018080602001828103825260198152602001807f43616c6c65722068617320616c726561647920766f7465642e0000000000000081525060200191505060405180910390fd5b600160009054906101000a900473ffffffffffffffffffffffffffffffffffffffff1673ffffffffffffffffffffffffffffffffffffffff16634c105d1b336040518263ffffffff1660e01b8152600401808273ffffffffffffffffffffffffffffffffffffffff1673ffffffffffffffffffffffffffffffffffffffff168152602001915050600060405180830381600087803b158015610f7b57600080fd5b505af1158015610f8f573d6000803e3d6000fd5b50505050600160009054906101000a900473ffffffffffffffffffffffffffffffffffffffff1673ffffffffffffffffffffffffffffffffffffffff1663597f264f85836040518363ffffffff1660e01b8152600401808373ffffffffffffffffffffffffffffffffffffffff1673ffffffffffffffffffffffffffffffffffffffff16815260200182815260200192505050600060405180830381600087803b15801561103c57600080fd5b505af1158015611050573d6000803e3d6000fd5b5050505050505b60018060146101000a81548160ff0219169083151502179055505050565b600080600160009054906101000a900473ffffffffffffffffffffffffffffffffffffffff1673ffffffffffffffffffffffffffffffffffffffff16631f4cea0c856040518263ffffffff1660e01b8152600401808273ffffffffffffffffffffffffffffffffffffffff1673ffffffffffffffffffffffffffffffffffffffff1681526020019150506040805180830381600087803b15801561111857600080fd5b505af115801561112c573d6000803e3d6000fd5b505050506040513d604081101561114257600080fd5b8101908080519060200190929190805190602001909291905050508092508193505050600073ffffffffffffffffffffffffffffffffffffffff168273ffffffffffffffffffffffffffffffffffffffff16141580156111cf5750600073ffffffffffffffffffffffffffffffffffffffff168473ffffffffffffffffffffffffffffffffffffffff1614155b611224576040517f08c379a000000000000000000000000000000000000000000000000000000000815260040180806020018281038252602281526020018061321c6022913960400191505060405180910390fd5b6000811161129a576040517f08c379a00000000000000000000000000000000000000000000000000000000081526004018080602001828103825260188152602001807f50617373656e676572206973206e6f7420696e7375726564000000000000000081525060200191505060405180910390fd5b601460ff168360ff1614806112b55750602860ff168360ff16145b1561147b5760006112e360026112d5600385612ede90919063ffffffff16565b612f6490919063ffffffff16565b9050600160009054906101000a900473ffffffffffffffffffffffffffffffffffffffff1673ffffffffffffffffffffffffffffffffffffffff1663d1598dca8685846040518463ffffffff1660e01b8152600401808473ffffffffffffffffffffffffffffffffffffffff1673ffffffffffffffffffffffffffffffffffffffff1681526020018373ffffffffffffffffffffffffffffffffffffffff1673ffffffffffffffffffffffffffffffffffffffff1681526020018281526020019350505050600060405180830381600087803b1580156113c257600080fd5b505af11580156113d6573d6000803e3d6000fd5b505050507f1814de5bef6c653774e7a391ca719df58da77dedccab3eeba831a23a16fdeae0858483604051808473ffffffffffffffffffffffffffffffffffffffff1673ffffffffffffffffffffffffffffffffffffffff1681526020018373ffffffffffffffffffffffffffffffffffffffff1673ffffffffffffffffffffffffffffffffffffffff168152602001828152602001935050505060405180910390a1505b50505050565b600080600160009054906101000a900473ffffffffffffffffffffffffffffffffffffffff1673ffffffffffffffffffffffffffffffffffffffff166305b64e98336040518263ffffffff1660e01b8152600401808273ffffffffffffffffffffffffffffffffffffffff1673ffffffffffffffffffffffffffffffffffffffff168152602001915050602060405180830381600087803b15801561152557600080fd5b505af1158015611539573d6000803e3d6000fd5b505050506040513d602081101561154f57600080fd5b810190808051906020019092919050505090508091505090565b60016115c0576040517f08c379a00000000000000000000000000000000000000000000000000000000081526004018080602001828103825260258152602001806132b16025913960400191505060405180910390fd5b678ac7230489e80000341461163d576040517f08c379a00000000000000000000000000000000000000000000000000000000081526004018080602001828103825260128152602001807f45746865722073686f756c64206265203130000000000000000000000000000081525060200191505060405180910390fd5b600160009054906101000a900473ffffffffffffffffffffffffffffffffffffffff1673ffffffffffffffffffffffffffffffffffffffff1663cb4f3acb336040518263ffffffff1660e01b8152600401808273ffffffffffffffffffffffffffffffffffffffff1673ffffffffffffffffffffffffffffffffffffffff168152602001915050602060405180830381600087803b1580156116de57600080fd5b505af11580156116f2573d6000803e3d6000fd5b505050506040513d602081101561170857600080fd5b81019080805190602001909291905050501561178c576040517f08c379a000000000000000000000000000000000000000000000000000000000815260040180806020018281038252601b8152602001807f6169726c696e6520616c7265616479206f7065726174696f6e616c000000000081525060200191505060405180910390fd5b600160009054906101000a900473ffffffffffffffffffffffffffffffffffffffff1673ffffffffffffffffffffffffffffffffffffffff1663f1a81e7233346040518363ffffffff1660e01b8152600401808373ffffffffffffffffffffffffffffffffffffffff1673ffffffffffffffffffffffffffffffffffffffff16815260200182815260200192505050600060405180830381600087803b15801561183557600080fd5b505af1158015611849573d6000803e3d6000fd5b50505050600160009054906101000a900473ffffffffffffffffffffffffffffffffffffffff1673ffffffffffffffffffffffffffffffffffffffff166371e63aee3360016040518363ffffffff1660e01b8152600401808373ffffffffffffffffffffffffffffffffffffffff1673ffffffffffffffffffffffffffffffffffffffff1681526020018215151515815260200192505050600060405180830381600087803b1580156118fb57600080fd5b505af115801561190f573d6000803e3d6000fd5b505050507feb8abaa300eb8dd5d0d78d2bb0c09eb67e947355aa97086deed030283d4982bd3334604051808373ffffffffffffffffffffffffffffffffffffffff1673ffffffffffffffffffffffffffffffffffffffff1681526020018281526020019250505060405180910390a1565b600080600073ffffffffffffffffffffffffffffffffffffffff168373ffffffffffffffffffffffffffffffffffffffff161415611a26576040517f08c379a000000000000000000000000000000000000000000000000000000000815260040180806020018281038252601c8152602001807f726571756573746564206169726c696e6520697320696e76616c69640000000081525060200191505060405180910390fd5b600160009054906101000a900473ffffffffffffffffffffffffffffffffffffffff1673ffffffffffffffffffffffffffffffffffffffff16631eeb8858846040518263ffffffff1660e01b8152600401808273ffffffffffffffffffffffffffffffffffffffff1673ffffffffffffffffffffffffffffffffffffffff168152602001915050602060405180830381600087803b158015611ac757600080fd5b505af1158015611adb573d6000803e3d6000fd5b505050506040513d6020811015611af157600080fd5b810190808051906020019092919050505015611b75576040517f08c379a000000000000000000000000000000000000000000000000000000000815260040180806020018281038252601d8152602001807f4169726c696e6520697320616c7265616479207265676973746572656400000081525060200191505060405180910390fd5b600160009054906101000a900473ffffffffffffffffffffffffffffffffffffffff1673ffffffffffffffffffffffffffffffffffffffff1663cb4f3acb336040518263ffffffff1660e01b8152600401808273ffffffffffffffffffffffffffffffffffffffff1673ffffffffffffffffffffffffffffffffffffffff168152602001915050602060405180830381600087803b158015611c1657600080fd5b505af1158015611c2a573d6000803e3d6000fd5b505050506040513d6020811015611c4057600080fd5b8101908080519060200190929190505050611cc3576040517f08c379a000000000000000000000000000000000000000000000000000000000815260040180806020018281038252601e8152602001807f4169726c696e6520697320616c7265616479206f7065726174696f6e616c000081525060200191505060405180910390fd5b6000600160009054906101000a900473ffffffffffffffffffffffffffffffffffffffff1673ffffffffffffffffffffffffffffffffffffffff1663174c7c656040518163ffffffff1660e01b8152600401602060405180830381600087803b158015611d2f57600080fd5b505af1158015611d43573d6000803e3d6000fd5b505050506040513d6020811015611d5957600080fd5b810190808051906020019092919050505090506004811015611eac57600160009054906101000a900473ffffffffffffffffffffffffffffffffffffffff1673ffffffffffffffffffffffffffffffffffffffff1663f1cba25e8560006040518363ffffffff1660e01b8152600401808373ffffffffffffffffffffffffffffffffffffffff1673ffffffffffffffffffffffffffffffffffffffff1681526020018215151515815260200192505050600060405180830381600087803b158015611e2357600080fd5b505af1158015611e37573d6000803e3d6000fd5b505050507fac78ffce05a964fd93df05896e78ca7d509ad473c8ac2aee9009a32a60afa95184604051808273ffffffffffffffffffffffffffffffffffffffff1673ffffffffffffffffffffffffffffffffffffffff16815260200191505060405180910390a160016000925092505061228e565b600160149054906101000a900460ff1615612285576000600160009054906101000a900473ffffffffffffffffffffffffffffffffffffffff1673ffffffffffffffffffffffffffffffffffffffff1663be5e04a6866040518263ffffffff1660e01b8152600401808273ffffffffffffffffffffffffffffffffffffffff1673ffffffffffffffffffffffffffffffffffffffff168152602001915050602060405180830381600087803b158015611f6457600080fd5b505af1158015611f78573d6000803e3d6000fd5b505050506040513d6020811015611f8e57600080fd5b8101908080519060200190929190505050905060028281611fab57fe5b0481106121bd57600160009054906101000a900473ffffffffffffffffffffffffffffffffffffffff1673ffffffffffffffffffffffffffffffffffffffff1663f1cba25e8660006040518363ffffffff1660e01b8152600401808373ffffffffffffffffffffffffffffffffffffffff1673ffffffffffffffffffffffffffffffffffffffff1681526020018215151515815260200192505050600060405180830381600087803b15801561206057600080fd5b505af1158015612074573d6000803e3d6000fd5b505050506000600160146101000a81548160ff021916908315150217905550600160009054906101000a900473ffffffffffffffffffffffffffffffffffffffff1673ffffffffffffffffffffffffffffffffffffffff1663f98e1536866040518263ffffffff1660e01b8152600401808273ffffffffffffffffffffffffffffffffffffffff1673ffffffffffffffffffffffffffffffffffffffff168152602001915050600060405180830381600087803b15801561213457600080fd5b505af1158015612148573d6000803e3d6000fd5b505050507fac78ffce05a964fd93df05896e78ca7d509ad473c8ac2aee9009a32a60afa95185604051808273ffffffffffffffffffffffffffffffffffffffff1673ffffffffffffffffffffffffffffffffffffffff16815260200191505060405180910390a160018093509350505061228e565b600160009054906101000a900473ffffffffffffffffffffffffffffffffffffffff1673ffffffffffffffffffffffffffffffffffffffff1663f98e1536866040518263ffffffff1660e01b8152600401808273ffffffffffffffffffffffffffffffffffffffff1673ffffffffffffffffffffffffffffffffffffffff168152602001915050600060405180830381600087803b15801561225e57600080fd5b505af1158015612272573d6000803e3d6000fd5b505050506000600193509350505061228e565b60008092509250505b915091565b8560ff16600460003373ffffffffffffffffffffffffffffffffffffffff1673ffffffffffffffffffffffffffffffffffffffff1681526020019081526020016000206001016000600381106122e557fe5b602091828204019190069054906101000a900460ff1660ff16148061237257508560ff16600460003373ffffffffffffffffffffffffffffffffffffffff1673ffffffffffffffffffffffffffffffffffffffff16815260200190815260200160002060010160016003811061235757fe5b602091828204019190069054906101000a900460ff1660ff16145b806123e557508560ff16600460003373ffffffffffffffffffffffffffffffffffffffff1673ffffffffffffffffffffffffffffffffffffffff1681526020019081526020016000206001016002600381106123ca57fe5b602091828204019190069054906101000a900460ff1660ff16145b61243a576040517f08c379a000000000000000000000000000000000000000000000000000000000815260040180806020018281038252602b81526020018061323e602b913960400191505060405180910390fd5b60008686868686604051602001808660ff1660ff1660f81b81526001018573ffffffffffffffffffffffffffffffffffffffff1673ffffffffffffffffffffffffffffffffffffffff1660601b81526014018484808284378083019250505082815260200195505050505050604051602081830303815290604052805190602001209050600115156005600083815260200190815260200160002060000160149054906101000a900460ff1615151461253e576040517f08c379a00000000000000000000000000000000000000000000000000000000081526004018080602001828103825260278152602001806131f56027913960400191505060405180910390fd5b6005600082815260200190815260200160002060010160008360ff1660ff168152602001908152602001600020339080600181540180825580915050600190039060005260206000200160009091909190916101000a81548173ffffffffffffffffffffffffffffffffffffffff021916908373ffffffffffffffffffffffffffffffffffffffff1602179055507f43c853095c2752648493c88b4baac4d580d2594ffb00c6f1d4242d844514f7838686868686604051808673ffffffffffffffffffffffffffffffffffffffff1673ffffffffffffffffffffffffffffffffffffffff168152602001806020018481526020018360ff1660ff1681526020018281038252868682818152602001925080828437600081840152601f19601f820116905080830192505050965050505050505060405180910390a160036005600083815260200190815260200160002060010160008460ff1660ff16815260200190815260200160002080549050106127985760006005600083815260200190815260200160002060000160146101000a81548160ff0219169083151502179055507fe23f5229de535c091e3b7bec2665f5d698192d3b31393066e8987b7a05076b6c8686868686604051808673ffffffffffffffffffffffffffffffffffffffff1673ffffffffffffffffffffffffffffffffffffffff168152602001806020018481526020018360ff1660ff1681526020018281038252868682818152602001925080828437600081840152601f19601f820116905080830192505050965050505050505060405180910390a16127978683611075565b5b50505050505050565b6000600160159054906101000a900460ff16905090565b600161280f576040517f08c379a00000000000000000000000000000000000000000000000000000000081526004018080602001828103825260258152602001806132b16025913960400191505060405180910390fd5b600160009054906101000a900473ffffffffffffffffffffffffffffffffffffffff1673ffffffffffffffffffffffffffffffffffffffff1663cb4f3acb826040518263ffffffff1660e01b8152600401808273ffffffffffffffffffffffffffffffffffffffff1673ffffffffffffffffffffffffffffffffffffffff168152602001915050602060405180830381600087803b1580156128b057600080fd5b505af11580156128c4573d6000803e3d6000fd5b505050506040513d60208110156128da57600080fd5b810190808051906020019092919050505061295d576040517f08c379a00000000000000000000000000000000000000000000000000000000081526004018080602001828103825260178152602001807f6169726c696e65206e6f74206f7065726174696f6e616c00000000000000000081525060200191505060405180910390fd5b6000341180156129755750670de0b6b3a76400003411155b6129ca576040517f08c379a000000000000000000000000000000000000000000000000000000000815260040180806020018281038252602b8152602001806131ca602b913960400191505060405180910390fd5b600160009054906101000a900473ffffffffffffffffffffffffffffffffffffffff1673ffffffffffffffffffffffffffffffffffffffff16638b4b27748233346040518463ffffffff1660e01b8152600401808473ffffffffffffffffffffffffffffffffffffffff1673ffffffffffffffffffffffffffffffffffffffff1681526020018373ffffffffffffffffffffffffffffffffffffffff1673ffffffffffffffffffffffffffffffffffffffff1681526020018281526020019350505050600060405180830381600087803b158015612aa757600080fd5b505af1158015612abb573d6000803e3d6000fd5b505050507f39a672fcc0812acb5b6ba6f625d60bc09a97137044ddcb5563892e7e866ab5c2813334604051808473ffffffffffffffffffffffffffffffffffffffff1673ffffffffffffffffffffffffffffffffffffffff1681526020018373ffffffffffffffffffffffffffffffffffffffff1673ffffffffffffffffffffffffffffffffffffffff168152602001828152602001935050505060405180910390a150565b6000612b6c33612fed565b905060008186868686604051602001808660ff1660ff1660f81b81526001018573ffffffffffffffffffffffffffffffffffffffff1673ffffffffffffffffffffffffffffffffffffffff1660601b8152601401848480828437808301925050508281526020019550505050505060405160208183030381529060405280519060200120905060405180604001604052803373ffffffffffffffffffffffffffffffffffffffff168152602001600115158152506005600083815260200190815260200160002060008201518160000160006101000a81548173ffffffffffffffffffffffffffffffffffffffff021916908373ffffffffffffffffffffffffffffffffffffffff16021790555060208201518160000160146101000a81548160ff0219169083151502179055509050507f3ed01f2c3fc24c6b329d931e35b03e390d23497d22b3f90e15b600343e93df118287878787604051808660ff1660ff1681526020018573ffffffffffffffffffffffffffffffffffffffff1673ffffffffffffffffffffffffffffffffffffffff168152602001806020018381526020018281038252858582818152602001925080828437600081840152601f19601f820116905080830192505050965050505050505060405180910390a1505050505050565b612d5a6130dd565b612d626130dd565b612d6b83612fed565b81600060038110612d7857fe5b602002019060ff16908160ff168152505080600060038110612d9657fe5b602002015181600160038110612da857fe5b602002019060ff16908160ff16815250505b80600060038110612dc757fe5b602002015160ff1681600160038110612ddc57fe5b602002015160ff161415612e1657612df383612fed565b81600160038110612e0057fe5b602002019060ff16908160ff1681525050612dba565b80600160038110612e2357fe5b602002015181600260038110612e3557fe5b602002019060ff16908160ff16815250505b80600060038110612e5457fe5b602002015160ff1681600260038110612e6957fe5b602002015160ff161480612ea4575080600160038110612e8557fe5b602002015160ff1681600260038110612e9a57fe5b602002015160ff16145b15612ed557612eb283612fed565b81600260038110612ebf57fe5b602002019060ff16908160ff1681525050612e47565b80915050919050565b600080831415612ef15760009050612f5e565b6000828402905082848281612f0257fe5b0414612f59576040517f08c379a00000000000000000000000000000000000000000000000000000000081526004018080602001828103825260218152602001806132906021913960400191505060405180910390fd5b809150505b92915050565b6000808211612fdb576040517f08c379a000000000000000000000000000000000000000000000000000000000815260040180806020018281038252601a8152602001807f536166654d6174683a206469766973696f6e206279207a65726f00000000000081525060200191505060405180910390fd5b818381612fe457fe5b04905092915050565b600080600a905060008160ff166003600081819054906101000a900460ff168092919060010191906101000a81548160ff021916908360ff16021790555060ff1643034085604051602001808381526020018273ffffffffffffffffffffffffffffffffffffffff1673ffffffffffffffffffffffffffffffffffffffff1660601b8152601401925050506040516020818303038152906040528051906020012060001c8161309857fe5b06905060fa600360009054906101000a900460ff1660ff1611156130d3576000600360006101000a81548160ff021916908360ff1602179055505b8092505050919050565b6040518060600160405280600390602082028036833780820191505090505090565b826003601f016020900481019282156131885791602002820160005b8382111561315957835183826101000a81548160ff021916908360ff160217905550926020019260010160208160000104928301926001030261311b565b80156131865782816101000a81549060ff0219169055600101602081600001049283019260010302613159565b505b5090506131959190613199565b5090565b6131c691905b808211156131c257600081816101000a81549060ff02191690555060010161319f565b5090565b9056fe496e737572616e636520616d6f756e74206973206e6f7420696e203020746f2031204554482072616e6765436f6e7472616374206973206e6f206d6f726520616363657074696e6720726573706f6e736573276163636f756e747327206d757374206265202076616c696420616464726573732e4f7261636c65206973206e6f7420617574686f726973656420746f207375626d697420726573706f6e7365496e73756666696369656e74204f7261636c652052656769737465726174696f6e2066756e6473536166654d6174683a206d756c7469706c69636174696f6e206f766572666c6f77436f6e74726163742069732063757272656e746c79206e6f74206f7065726174696f6e616ca2646970667358221220483ff08ed6f363ce7488412e16065f4b1212aa562839101cc4675f71f95851ee64736f6c63430006050033",
  "immutableReferences": {},
  "source": "pragma solidity >=0.6.0 <0.8.0;\n\nimport \"../node_modules/@openzeppelin/contracts/math/SafeMath.sol\";\n\nimport \"./DataInterfaceContract.sol\";\n\ncontract FlightSuretyApp {\n  using SafeMath for uint256;\n\n\n  //==========================================\n  // DATA VARIABLES\n  //==========================================\n\n  // Flight status codees\n  uint8 private constant STATUS_CODE_UNKNOWN = 0;\n  uint8 private constant STATUS_CODE_ON_TIME = 10;\n  uint8 private constant STATUS_CODE_LATE_AIRLINE = 20;\n  uint8 private constant STATUS_CODE_LATE_WEATHER = 30;\n  uint8 private constant STATUS_CODE_LATE_TECHNICAL = 40;\n  uint8 private constant STATUS_CODE_LATE_OTHER = 50;\n\n  // Acc used to deploy contract\n  address private contractOwner;\n\n  // DataInterfaceContract Instance\n  FlightSuretyDataInterface flightSuretyData;\n\n  uint256 constant M = 4;\n  bool private voteStatus = false;\n  bool private operational = true;\n\n  struct Flight {\n    bool isRegistered;\n    uint8 statusCode;\n    uint256 updatedTimestamp;\n    address airline;\n  }\n\n  mapping(bytes32 => Flight) private flights;\n\n\n  //==========================================\n  // EVENTS\n  //==========================================\n\n  event RegisterAirline(address account);\n  event FundedAirlines(address funded, uint256 value);\n\n  event PurchaseInsurance(address airline, address sender, uint256 amount);\n  event CreditInsurees(address airline, address passenger, uint256 credit);  \n  event Withdraw(address sender,uint256 amount);\n  \n  event SubmitOracleResponse(uint8 indexes, address airline, string flight, uint256 timestamp, uint8 statusCode);\n\n\n  //==========================================\n  // MODIFIERS\n  //==========================================\n\n  modifier requireIsOperational() {\n    require(true, \"Contract is currently not operational\");\n    _;\n  }\n\n  modifier requireContractOwner() {\n    require(msg.sender == contractOwner, \"Caller is not contract owner\");\n    _;\n  }\n\n\n  //==========================================\n  // CONSTRUCTOR & UTILITY\n  //==========================================\n  \n  constructor(address dataContract) public {\n    contractOwner = msg.sender;\n    flightSuretyData = FlightSuretyDataInterface(dataContract);\n    flightSuretyData._registerAirline(contractOwner, true);\n    emit RegisterAirline(contractOwner);\n  }\n\n  function isOperational() public view returns(bool) {\n    return operational;\n  }\n\n\n  //==========================================\n  // SMART CONTRACT FUNCTIONS\n  //==========================================\n\n  function registerAirline(address airline) external returns(bool, bool) {\n    require(airline != address(0), \"requested airline is invalid\");\n    require(!flightSuretyData.getAirlineRegistrationStatus(airline), \"Airline is already registered\");\n    require(flightSuretyData.getAirlineOperatingStatus(msg.sender), \"Airline is already operational\");\n\n    uint256 multicall_Length = flightSuretyData.multiCallsLength();\n\n    if (multicall_Length < M){\n        // Register airline directly in this case\n        flightSuretyData._registerAirline(airline, false);\n        emit RegisterAirline(airline);\n        return(true, false);  // Registered without a vote\n    } else {\n      if(voteStatus){\n        uint voteCount = flightSuretyData.getVoteCounter(airline);\n\n        if(voteCount >= multicall_Length/2){\n          // Airline has been voted in\n          flightSuretyData._registerAirline(airline, false);\n\n          voteStatus = false;\n          flightSuretyData.resetVoteCounter(airline);\n\n          emit RegisterAirline(airline);\n          return(true, true);             \n\n        } else {\n          // Airline has been voted out\n          flightSuretyData.resetVoteCounter(airline);\n          return(false, true); \n        }\n      } else {\n        // Requesting for a vote\n        return(false,false);                 \n      }\n    }\n  }\n\n\n  // Approve registration of fifth and subsequent airlines\n  function approveAirlineRegistration(address airline, bool airline_vote) public requireIsOperational {\n    \n    require(!flightSuretyData.getAirlineRegistrationStatus(airline),\"airline already registered\");\n    require(flightSuretyData.getAirlineOperatingStatus(msg.sender),\"airline not operational\");\n    \n    if(airline_vote == true){\n      // Check and avoid duplicate vote for the same airline\n      bool isDuplicate = false;\n      uint incrementVote = 1;\n      isDuplicate = flightSuretyData.getVoterStatus(msg.sender);\n\n      // Check to avoid registering same airline multiple times\n      require(!isDuplicate, \"Caller has already voted.\");\n      flightSuretyData.addVoters(msg.sender);\n      flightSuretyData.addVoterCounter(airline, incrementVote);\n    }\n    voteStatus = true;\n  }\n\n\n  function fund() public payable requireIsOperational {\n    require(msg.value == 10 ether,\"Ether should be 10\");\n    require(!flightSuretyData.getAirlineOperatingStatus(msg.sender),\"airline already operational\");\n\n    flightSuretyData.fundAirline(msg.sender, msg.value);\n\n    flightSuretyData.setAirlineOperatingStatus(msg.sender, true);\n\n    emit FundedAirlines(msg.sender, msg.value);   \n  }\n\n  function processFlightStatus(address airline, uint8 statusCode) public {\n    address passenger;\n    uint256 amountPaid;\n    (passenger, amountPaid) = flightSuretyData.getInsuredPassenger_amount(airline);\n\n    require((passenger != address(0)) && (airline != address(0)), \"'accounts' must be  valid address.\");\n    require(amountPaid > 0, \"Passenger is not insured\");\n\n    // Only credit if flight delay is airline fault (airline late and late due to technical)\n    if((statusCode == STATUS_CODE_LATE_AIRLINE) || (statusCode == STATUS_CODE_LATE_TECHNICAL)){\n      uint256 credit = amountPaid.mul(3).div(2);\n\n      flightSuretyData.creditInsurees(airline, passenger, credit);\n      emit CreditInsurees(airline, passenger, credit);\n    }\n  }\n\n  // Generate Flight Status Request for Registered Oracles\n  function fetchFlightStatus(address airline, string calldata flight, uint256 timestamp) external {\n    // Generate Random Index to determine which set of oracles to request.\n    uint8 index = getRandomIndex(msg.sender);\n\n    // Generate a unique key for storing the request\n    bytes32 key = keccak256(abi.encodePacked(index, airline, flight, timestamp));\n    oracleResponses[key] = ResponseInfo({\n      requester: msg.sender,\n      isOpen: true\n    });\n    \n    // Notify Registered Oracles having index for New Open Request to fetch flight status\n    emit OracleRequest(index, airline, flight, timestamp);\n  }\n\n\n  function buy(address airline) external payable requireIsOperational {\n    // Check if airline is operational\n    require(flightSuretyData.getAirlineOperatingStatus(airline), \"airline not operational\");\n    \n    // Check if amount range is greater than 0 ether and less than 1 ether.\n    require((msg.value > 0 ether) && (msg.value <= 1 ether), \"Insurance amount is not in 0 to 1 ETH range\");\n\n    // Register insurance in database\n    flightSuretyData.registerInsurance(airline, msg.sender, msg.value);\n    emit PurchaseInsurance(airline, msg.sender, msg.value);\n  }\n\n\n  function getPassenger_CreditedAmount() external returns(uint256) {\n    uint256 credit = flightSuretyData.getPassengerCredit(msg.sender);\n    return credit;\n  }\n\n    \n  function withdraw() external requireIsOperational {\n    require(flightSuretyData.getPassengerCredit(msg.sender) > 0, \"Insufficient funds to withdraw\");\n\n    uint256 withdraw_value = flightSuretyData.withdraw(msg.sender);\n    // Transfer credit to passenger wallet\n    msg.sender.transfer(withdraw_value);\n    \n    emit Withdraw(msg.sender,withdraw_value);\n  }\n\n\n  //==========================================\n  // ORACLE MANAGEMENT\n  //==========================================\n\n  // Incremented to add pseudo-randomness at various points\n  uint8 private nonce = 0;    \n\n  // Fee to be paid when registering oracle\n  uint256 public constant REGISTRATION_FEE = 1 ether;\n\n  // Number of oracles that must respond for valid status\n  uint256 private constant MIN_RESPONSES = 3;\n\n  struct Oracle {\n    bool isRegistered;\n    uint8[3] indexes;        \n  }\n\n  // Data Structure for response from Oracle\n  struct ResponseInfo {\n    address requester;\n    bool isOpen;\n    // Mapping key : status reported\n    // Mapping value : array of address of oracles returned same status\n    mapping(uint8 => address[]) responses;\n  }\n\n  // Track all registered oracles\n  mapping(address => Oracle) private oracles;\n\n  // Track all oracle responses\n  // key = hash(index, flight, timestamp)\n  mapping(bytes32 => ResponseInfo) private oracleResponses;\n\n\n  // Event fired each time an oracle submits a response\n  event FlightStatusInfo(address airline,string flight,uint256 timestamp,uint8 status);\n  \n  event OracleReport(address airline, string flight, uint256 timestamp, uint8 status);\n\n  // Event fired when flight status request is submitted\n  // Oracles track this and if they have a matching index they fetch data and submit a response\n  event OracleRequest(uint8 index, address airline, string flight, uint256 timestamp);\n\n\n  // Returns a random uint8 number\n  function getRandomIndex(address account) internal returns (uint8) {\n    uint8 maxValue = 10;\n    // Pseudo random number...the incrementing nonce adds variation\n    uint8 random = uint8(uint256(keccak256(abi.encodePacked(blockhash(block.number - nonce++), account))) % maxValue);\n    if (nonce > 250) {\n      nonce = 0;\n    }\n    return random;\n  }\n\n  // Returns array of three non-duplicating integers from 0-9\n  function generateIndexes(address account) internal returns (uint8[3] memory){\n    uint8[3] memory indexes;\n    indexes[0] = getRandomIndex(account);\n\n    indexes[1] = indexes[0];\n    while (indexes[1] == indexes[0]) {\n      indexes[1] = getRandomIndex(account);\n    }\n    indexes[2] = indexes[1];\n    while ((indexes[2] == indexes[0]) || (indexes[2] == indexes[1])) {\n      indexes[2] = getRandomIndex(account);\n    }\n    return indexes;\n  }\n\n\n  // Step 1 : Oracle register with smart contract\n  // (an oracle will call this function to get registered with this smart contract)\n  function registerOracle() external payable {\n    // Check if oracle reg fee paid\n    require(msg.value >= REGISTRATION_FEE, \"Insufficient Oracle Registeration funds\");\n\n    // create 3 random numbers array\n    uint8[3] memory indexes = generateIndexes(msg.sender);\n\n    // register oracle\n    oracles[msg.sender] = Oracle({\n      isRegistered: true,\n      indexes: indexes\n    });\n  }\n\n  // Utility : In case contract owner wants to preview registered oracle info store\n  function getMyIndexes() external view returns(uint8[3] memory) {\n    require(oracles[msg.sender].isRegistered, \"Not registered as an oracle\");\n\n    return oracles[msg.sender].indexes;\n  }\n\n\n  // Step 3 : Receive Response from Registered & Authorised Oracles \n  function submitOracleResponse(uint8 index, address airline, string calldata flight, uint timestamp, uint8 statusCode) external {\n    require(\n      oracles[msg.sender].indexes[0] == index ||\n      oracles[msg.sender].indexes[1] == index ||\n      oracles[msg.sender].indexes[2] == index, \"Oracle is not authorised to submit response\"\n    );\n\n    // Require that the response is being submitted for a request that is still open\n    bytes32 key = keccak256(abi.encodePacked(index, airline, flight, timestamp));\n    require(oracleResponses[key].isOpen == true, \"Contract is no more accepting responses\");\n\n    oracleResponses[key].responses[statusCode].push(msg.sender);\n\n    // Information isn't considered verified until at least MIN_RESPONSES\n    // oracles respond with the same information\n    emit OracleReport(airline, flight, timestamp, statusCode);\n    if(oracleResponses[key].responses[statusCode].length >= MIN_RESPONSES){\n      // Prevent any more responses since MIN_RESPONSE threshold has been reached\n      // Announce to the world that verified flight status information is available\n      oracleResponses[key].isOpen = false;\n      emit FlightStatusInfo(airline, flight, timestamp, statusCode);\n\n      // Handle flight status as appropriate\n      processFlightStatus(airline, statusCode);\n    }\n  }\n\n  function getFlightKey(address airline, string memory flight, uint256 timestamp) pure internal returns(bytes32) {\n    return keccak256(abi.encodePacked(airline, flight, timestamp));\n  }\n\n  // function() external payable {\n  //   fund();\n  // }\n}",
  "sourcePath": "/Users/tomdemoor/Documents/Udacity Submit/Udacity - Flight Surety Dapp/contracts/FlightSuretyApp.sol",
  "compiler": {
    "name": "solc",
    "version": "0.6.5+commit.f956cc89.Emscripten.clang"
  },
  "schemaVersion": "3.3.4",
  "updatedAt": "2021-04-17T22:00:07.088Z",
  "networkType": "ethereum",
  "devdoc": {
    "methods": {}
  },
  "userdoc": {
    "methods": {}
  }
}